{
  "address": "0x7eE2782cf6A6a24377676C591d885249b3af8Ab2",
  "abi": [
    {
      "inputs": [
        {
          "internalType": "contract TellerAS",
          "name": "_tellerAS",
          "type": "address"
        }
      ],
      "stateMutability": "nonpayable",
      "type": "constructor"
    },
    {
      "inputs": [],
      "name": "NotPayable",
      "type": "error"
    },
    {
      "anonymous": false,
      "inputs": [
        {
          "indexed": true,
          "internalType": "address",
          "name": "owner",
          "type": "address"
        },
        {
          "indexed": false,
          "internalType": "uint256",
          "name": "marketId",
          "type": "uint256"
        }
      ],
      "name": "MarketCreated",
      "type": "event"
    },
    {
      "anonymous": false,
      "inputs": [
        {
          "indexed": false,
          "internalType": "uint256",
          "name": "marketId",
          "type": "uint256"
        },
        {
          "indexed": false,
          "internalType": "string",
          "name": "uri",
          "type": "string"
        }
      ],
      "name": "SetMarketURI",
      "type": "event"
    },
    {
      "inputs": [
        {
          "internalType": "uint256",
          "name": "marketId",
          "type": "uint256"
        },
        {
          "internalType": "address",
          "name": "lenderAddress",
          "type": "address"
        },
        {
          "internalType": "uint256",
          "name": "expirationTime",
          "type": "uint256"
        },
        {
          "internalType": "uint8",
          "name": "v",
          "type": "uint8"
        },
        {
          "internalType": "bytes32",
          "name": "r",
          "type": "bytes32"
        },
        {
          "internalType": "bytes32",
          "name": "s",
          "type": "bytes32"
        }
      ],
      "name": "attestLender",
      "outputs": [],
      "stateMutability": "nonpayable",
      "type": "function"
    },
    {
      "inputs": [
        {
          "internalType": "address",
          "name": "_initialOwner",
          "type": "address"
        },
        {
          "internalType": "bool",
          "name": "_requireLenderAttestation",
          "type": "bool"
        },
        {
          "internalType": "string",
          "name": "_uri",
          "type": "string"
        }
      ],
      "name": "createMarket",
      "outputs": [],
      "stateMutability": "nonpayable",
      "type": "function"
    },
    {
      "inputs": [
        {
          "internalType": "uint256",
          "name": "marketId",
          "type": "uint256"
        }
      ],
      "name": "getAllVerifiedLendersForMarket",
      "outputs": [
        {
          "internalType": "address[]",
          "name": "",
          "type": "address[]"
        }
      ],
      "stateMutability": "view",
      "type": "function"
    },
    {
      "inputs": [
        {
          "internalType": "uint256",
          "name": "marketId",
          "type": "uint256"
        }
      ],
      "name": "getMarketOwner",
      "outputs": [
        {
          "internalType": "address",
          "name": "",
          "type": "address"
        }
      ],
      "stateMutability": "view",
      "type": "function"
    },
    {
      "inputs": [
        {
          "internalType": "uint256",
          "name": "marketId",
          "type": "uint256"
        }
      ],
      "name": "getMarketURI",
      "outputs": [
        {
          "internalType": "string",
          "name": "",
          "type": "string"
        }
      ],
      "stateMutability": "view",
      "type": "function"
    },
    {
      "inputs": [],
      "name": "initialize",
      "outputs": [],
      "stateMutability": "nonpayable",
      "type": "function"
    },
    {
      "inputs": [],
      "name": "isPayable",
      "outputs": [
        {
          "internalType": "bool",
          "name": "",
          "type": "bool"
        }
      ],
      "stateMutability": "pure",
      "type": "function"
    },
    {
      "inputs": [
        {
          "internalType": "uint256",
          "name": "marketId",
          "type": "uint256"
        },
        {
          "internalType": "address",
          "name": "lenderAddress",
          "type": "address"
        }
      ],
      "name": "isVerifiedLender",
      "outputs": [
        {
          "internalType": "bool",
          "name": "",
          "type": "bool"
        }
      ],
      "stateMutability": "view",
      "type": "function"
    },
    {
      "inputs": [],
      "name": "lenderAttestationSchemaId",
      "outputs": [
        {
          "internalType": "bytes32",
          "name": "",
          "type": "bytes32"
        }
      ],
      "stateMutability": "view",
      "type": "function"
    },
    {
      "inputs": [],
      "name": "marketCount",
      "outputs": [
        {
          "internalType": "uint256",
          "name": "",
          "type": "uint256"
        }
      ],
      "stateMutability": "view",
      "type": "function"
    },
    {
      "inputs": [
        {
          "internalType": "address",
          "name": "recipient",
          "type": "address"
        },
        {
          "internalType": "bytes",
          "name": "schema",
          "type": "bytes"
        },
        {
          "internalType": "bytes",
          "name": "data",
          "type": "bytes"
        },
        {
          "internalType": "uint256",
          "name": "",
          "type": "uint256"
        },
        {
          "internalType": "address",
          "name": "attestor",
          "type": "address"
        }
      ],
      "name": "resolve",
      "outputs": [
        {
          "internalType": "bool",
          "name": "",
          "type": "bool"
        }
      ],
      "stateMutability": "payable",
      "type": "function"
    },
    {
      "inputs": [
        {
          "internalType": "uint256",
          "name": "marketId",
          "type": "uint256"
        },
        {
          "internalType": "string",
          "name": "uri",
          "type": "string"
        }
      ],
      "name": "setMarketURI",
      "outputs": [],
      "stateMutability": "nonpayable",
      "type": "function"
    },
    {
      "inputs": [],
      "name": "tellerAS",
      "outputs": [
        {
          "internalType": "contract TellerAS",
          "name": "",
          "type": "address"
        }
      ],
      "stateMutability": "view",
      "type": "function"
    },
    {
      "inputs": [
        {
          "internalType": "uint256",
          "name": "marketId",
          "type": "uint256"
        },
        {
          "internalType": "address",
          "name": "newOwner",
          "type": "address"
        }
      ],
      "name": "transferMarketOwnership",
      "outputs": [],
      "stateMutability": "nonpayable",
      "type": "function"
    },
    {
      "stateMutability": "payable",
      "type": "receive"
    }
  ],
  "artifactName": "MarketRegistry",
  "transactionHash": "0x262c252a78a790bff4e22fb09792f4e0a34f7b23f198cf697aece4d5a5f5e13a",
  "args": [
    "0xDE2b4cfbcCabdd1b67454Ac086EC366AEaeD7E4D"
  ],
  "solcInputHash": "98677f32543e021ed724a7a87aae15c4",
  "bytecode": "0x60a060405234801561001057600080fd5b5060405161139838038061139883398101604081905261002f91610044565b60601b6001600160601b031916608052610074565b60006020828403121561005657600080fd5b81516001600160a01b038116811461006d57600080fd5b9392505050565b60805160601c6112f16100a7600039600081816102d901528181610411015281816105b1015261092e01526112f16000f3fe6080604052600436106100e15760003560e01c80637cfc18181161007f578063947a75b411610059578063947a75b4146102a0578063ce46e046146102b3578063ddfafef6146102c7578063ec979082146102fb57600080fd5b80637cfc18181461023e5780638129fc1c1461025e5780638c7ab2931461027357600080fd5b80633ef19a9b116100bb5780633ef19a9b146101ae5780633fa7f688146101de57806340c275f2146101fe578063532f56941461021e57600080fd5b80631a4808d2146101065780633c0db7881461013c5780633d3690291461016057600080fd5b3661010157604051631574f9f360e01b815260040160405180910390fd5b005b600080fd5b34801561011257600080fd5b50610126610121366004610fa1565b610311565b60405161013391906111fe565b60405180910390f35b34801561014857600080fd5b5061015260015481565b604051908152602001610133565b34801561016c57600080fd5b5061019661017b366004610fa1565b6000908152600260205260409020546001600160a01b031690565b6040516001600160a01b039091168152602001610133565b3480156101ba57600080fd5b506101ce6101c9366004610fba565b6103b6565b6040519015158152602001610133565b3480156101ea57600080fd5b506100ff6101f9366004610fea565b61049c565b34801561020a57600080fd5b506100ff610219366004610e49565b6106e6565b34801561022a57600080fd5b506100ff61023936600461104c565b61079e565b34801561024a57600080fd5b506100ff610259366004610fba565b610807565b34801561026a57600080fd5b506100ff61088e565b34801561027f57600080fd5b5061029361028e366004610fa1565b610a98565b6040516101339190611195565b6101ce6102ae366004610eae565b610ab5565b3480156102bf57600080fd5b5060006101ce565b3480156102d357600080fd5b506101967f000000000000000000000000000000000000000000000000000000000000000081565b34801561030757600080fd5b5061015260045481565b600081815260026020526040902060010180546060919061033190611234565b80601f016020809104026020016040519081016040528092919081815260200182805461035d90611234565b80156103aa5780601f1061037f576101008083540402835291602001916103aa565b820191906000526020600020905b81548152906001019060200180831161038d57829003601f168201915b50505050509050919050565b60008281526002602081905260408220015460ff16156104925760008381526002602090815260408083206001600160a01b0386811685526005909101909252918290205491516330cd251f60e21b815260048101929092527f0000000000000000000000000000000000000000000000000000000000000000169063c334947c9060240160206040518083038186803b15801561045357600080fd5b505afa158015610467573d6000803e3d6000fd5b505050506040513d601f19601f8201168201806040525081019061048b9190610f4e565b9050610496565b5060015b92915050565b6005805460ff19166001179055856104ef5760405162461bcd60e51b8152602060048201526011602482015270125b9d985b1a59081b585c9ad95d081251607a1b60448201526064015b60405180910390fd5b6000868152600260205260409020546001600160a01b03168061054b5760405162461bcd60e51b815260206004820152601460248201527313585c9ad95d081bdddb995c881b9bdd081cd95d60621b60448201526064016104e6565b6000878152600260208190526040909120015460ff166105ad5760405162461bcd60e51b815260206004820152601f60248201527f4c656e646572206174746573746174696f6e206e6f742072657175697265640060448201526064016104e6565b60007f00000000000000000000000000000000000000000000000000000000000000006001600160a01b031663930ed013886001548960008d8d60405160200161060a9291909182526001600160a01b0316602082015260400190565b604051602081830303815290604052888c8c8c6040518a63ffffffff1660e01b815260040161064199989796959493929190611134565b602060405180830381600087803b15801561065b57600080fd5b505af115801561066f573d6000803e3d6000fd5b505050506040513d601f19601f820116820180604052508101906106939190610f6b565b60008981526002602081815260408084206001600160a01b038d168552600581018352908420859055928c9052529091506106d19060030188610b66565b50506005805460ff1916905550505050505050565b60006004600081546106f79061126f565b91829055509050610709818484610b82565b600081815260026020526040902080546001600160a01b0319166001600160a01b038716179055831561075457600081815260026020819052604090912001805460ff191660011790555b846001600160a01b03167fa69fa77c6a90b171cf4e3d9a9dd6c4e56fbd1fbbdcf3925eaf600ccaa917feab8260405161078f91815260200190565b60405180910390a25050505050565b60008381526002602052604090205483906001600160a01b031633146107f65760405162461bcd60e51b815260206004820152600d60248201526c2737ba103a34329037bbb732b960991b60448201526064016104e6565b610801848484610b82565b50505050565b60008281526002602052604090205482906001600160a01b0316331461085f5760405162461bcd60e51b815260206004820152600d60248201526c2737ba103a34329037bbb732b960991b60448201526064016104e6565b5060009182526002602052604090912080546001600160a01b0319166001600160a01b03909216919091179055565b600054610100900460ff16806108a7575060005460ff16155b61090a5760405162461bcd60e51b815260206004820152602e60248201527f496e697469616c697a61626c653a20636f6e747261637420697320616c72656160448201526d191e481a5b9a5d1a585b1a5e995960921b60648201526084016104e6565b600054610100900460ff1615801561092c576000805461ffff19166101011790555b7f00000000000000000000000000000000000000000000000000000000000000006001600160a01b03166381fa6cd36040518163ffffffff1660e01b815260040160206040518083038186803b15801561098557600080fd5b505afa158015610999573d6000803e3d6000fd5b505050506040513d601f19601f820116820180604052508101906109bd9190610f84565b6040805163a99e7e2960e01b81526004810191909152602960448201527f2875696e74323536206d61726b657449642c2061646472657373206c656e646560648201526872416464726573732960b81b60848201523060248201526001600160a01b03919091169063a99e7e299060a401602060405180830381600087803b158015610a4857600080fd5b505af1158015610a5c573d6000803e3d6000fd5b505050506040513d601f19601f82011682018060405250810190610a809190610f6b565b6001558015610a95576000805461ff00191690555b50565b600081815260026020526040902060609061049690600301610cb0565b60055460009060ff16610aca57506000610b5b565b6000878730604051602001610ae19392919061110e565b60408051601f1981840301815291905280516020909101209050600080610b0a87890189610fba565b9150915082600154148015610b305750806001600160a01b03168b6001600160a01b0316145b8015610b5557506000828152600260205260409020546001600160a01b038681169116145b93505050505b979650505050505050565b6000610b7b836001600160a01b038416610cbd565b9392505050565b60008311610bc05760405162461bcd60e51b815260206004820152600b60248201526a04d61726b657420494420360ac1b60448201526064016104e6565b60008282604051602001610bd59291906111e2565b60408051601f1981840301815291815281516020928301206000818152600390935291205490915015610c425760405162461bcd60e51b81526020600482015260156024820152746e6f6e2d756e69717565206d61726b65742055524960581b60448201526064016104e6565b600081815260036020908152604080832087905586835260029091529020610c6e906001018484610d67565b507f6218b53065a32d32b3f52d9ad728c1b826a2aae15fc1ee92f83836debbcc1029848484604051610ca293929190611211565b60405180910390a150505050565b60606000610b7b83610d0c565b6000818152600183016020526040812054610d0457508154600181810184556000848152602080822090930184905584548482528286019093526040902091909155610496565b506000610496565b6060816000018054806020026020016040519081016040528092919081815260200182805480156103aa57602002820191906000526020600020905b815481526020019060010190808311610d485750505050509050919050565b828054610d7390611234565b90600052602060002090601f016020900481019282610d955760008555610ddb565b82601f10610dae5782800160ff19823516178555610ddb565b82800160010185558215610ddb579182015b82811115610ddb578235825591602001919060010190610dc0565b50610de7929150610deb565b5090565b5b80821115610de75760008155600101610dec565b60008083601f840112610e1257600080fd5b50813567ffffffffffffffff811115610e2a57600080fd5b602083019150836020828501011115610e4257600080fd5b9250929050565b60008060008060608587031215610e5f57600080fd5b8435610e6a81611298565b93506020850135610e7a816112ad565b9250604085013567ffffffffffffffff811115610e9657600080fd5b610ea287828801610e00565b95989497509550505050565b600080600080600080600060a0888a031215610ec957600080fd5b8735610ed481611298565b9650602088013567ffffffffffffffff80821115610ef157600080fd5b610efd8b838c01610e00565b909850965060408a0135915080821115610f1657600080fd5b50610f238a828b01610e00565b909550935050606088013591506080880135610f3e81611298565b8091505092959891949750929550565b600060208284031215610f6057600080fd5b8151610b7b816112ad565b600060208284031215610f7d57600080fd5b5051919050565b600060208284031215610f9657600080fd5b8151610b7b81611298565b600060208284031215610fb357600080fd5b5035919050565b60008060408385031215610fcd57600080fd5b823591506020830135610fdf81611298565b809150509250929050565b60008060008060008060c0878903121561100357600080fd5b86359550602087013561101581611298565b945060408701359350606087013560ff8116811461103257600080fd5b9598949750929560808101359460a0909101359350915050565b60008060006040848603121561106157600080fd5b83359250602084013567ffffffffffffffff81111561107f57600080fd5b61108b86828701610e00565b9497909650939450505050565b6000815180845260005b818110156110be576020818501810151868301820152016110a2565b818111156110d0576000602083870101525b50601f01601f19169290920160200192915050565b81835281816020850137506000828201602090810191909152601f909101601f19169091010190565b8284823760609190911b6bffffffffffffffffffffffff19169101908152601401919050565b600061012060018060a01b03808d1684528b60208501528a60408501528960608501528160808501526111698285018a611098565b971660a0840152505060ff9390931660c084015260e08301919091526101009091015295945050505050565b6020808252825182820181905260009190848201906040850190845b818110156111d65783516001600160a01b0316835292840192918401916001016111b1565b50909695505050505050565b6020815260006111f66020830184866110e5565b949350505050565b602081526000610b7b6020830184611098565b83815260406020820152600061122b6040830184866110e5565b95945050505050565b600181811c9082168061124857607f821691505b6020821081141561126957634e487b7160e01b600052602260045260246000fd5b50919050565b600060001982141561129157634e487b7160e01b600052601160045260246000fd5b5060010190565b6001600160a01b0381168114610a9557600080fd5b8015158114610a9557600080fdfea26469706673582212207fd12110a823a303dd5183a6244b4b47c015768a7e98704154b6bab58f04cefa64736f6c63430008060033",
  "devdoc": {
    "kind": "dev",
    "methods": {
      "attestLender(uint256,address,uint256,uint8,bytes32,bytes32)": {
        "details": "The signature must match that of the market owner.",
        "params": {
          "lenderAddress": "The address of the lender to add to the market.",
          "marketId": "The market ID to add a lender to.",
          "r": "Signature value",
          "s": "Signature value",
          "v": "Signature value"
        }
      },
      "createMarket(address,bool,string)": {
        "params": {
          "_initialOwner": "Address who will initially own the market.",
          "_requireLenderAttestation": "Boolean that indicates if lenders require attestation to join market.",
          "_uri": "URI string to get metadata details about the market."
        }
      },
      "getAllVerifiedLendersForMarket(uint256)": {
        "params": {
          "marketId": "The ID of a market."
        },
        "returns": {
          "_0": "Array of addresses that have been added to a market."
        }
      },
      "getMarketOwner(uint256)": {
        "params": {
          "marketId": "The ID of a market."
        },
        "returns": {
          "_0": "The address of a market's owner."
        }
      },
      "getMarketURI(uint256)": {
        "params": {
          "marketId": "The ID of a market."
        },
        "returns": {
          "_0": "URI of a market's metadata."
        }
      },
      "isPayable()": {
        "details": "Returns whether the resolver supports ETH transfers"
      },
      "isVerifiedLender(uint256,address)": {
        "params": {
          "lenderAddress": "Address to check.",
          "marketId": "The ID of a market."
        },
        "returns": {
          "_0": "Boolean indicating if a lender has been added to a market."
        }
      },
      "resolve(address,bytes,bytes,uint256,address)": {
        "details": "This function must only be called by the `attestLender` function above.",
        "params": {
          "": "@param attestor Market owner's address who signed the attestation.",
          "data": "Data the must include the market ID and lender's address",
          "recipient": "Lender's address who is being attested.",
          "schema": "The schema used for the attestation."
        },
        "returns": {
          "_0": "Boolean indicating the attestation was successful."
        }
      },
      "setMarketURI(uint256,string)": {
        "params": {
          "marketId": "The ID of a market.",
          "uri": "A URI that points to a market's metadata."
        }
      },
      "transferMarketOwnership(uint256,address)": {
        "params": {
          "marketId": "The ID of a market.",
          "newOwner": "Address of the new market owner. Requirements: - The caller must by the current owner."
        }
      }
    },
    "version": 1
  },
  "userdoc": {
    "kind": "user",
    "methods": {
      "attestLender(uint256,address,uint256,uint8,bytes32,bytes32)": {
        "notice": "Adds a lender to a market via delegated attestation."
      },
      "createMarket(address,bool,string)": {
        "notice": "Creates a new market."
      },
      "getAllVerifiedLendersForMarket(uint256)": {
        "notice": "Gets addresses of all attested lenders"
      },
      "getMarketOwner(uint256)": {
        "notice": "Gets the address of a market's owner."
      },
      "getMarketURI(uint256)": {
        "notice": "Gets the metadata URI of a market."
      },
      "isVerifiedLender(uint256,address)": {
        "notice": "Checks if a lender has been attested and added to a market."
      },
      "resolve(address,bytes,bytes,uint256,address)": {
        "notice": "Verifies an attestation is valid."
      },
      "setMarketURI(uint256,string)": {
        "notice": "Sets the metadata URI for a market."
      },
      "transferMarketOwnership(uint256,address)": {
        "notice": "Transfers ownership of a marketplace."
      }
    },
    "version": 1
  },
  "storageLayout": {
    "storage": [
      {
        "astId": 599,
        "contract": "contracts/MarketRegistry.sol:MarketRegistry",
        "label": "_initialized",
        "offset": 0,
        "slot": "0",
        "type": "t_bool"
      },
      {
        "astId": 602,
        "contract": "contracts/MarketRegistry.sol:MarketRegistry",
        "label": "_initializing",
        "offset": 1,
        "slot": "0",
        "type": "t_bool"
      },
      {
        "astId": 5902,
        "contract": "contracts/MarketRegistry.sol:MarketRegistry",
        "label": "lenderAttestationSchemaId",
        "offset": 0,
        "slot": "1",
        "type": "t_bytes32"
      },
      {
        "astId": 5907,
        "contract": "contracts/MarketRegistry.sol:MarketRegistry",
        "label": "markets",
        "offset": 0,
        "slot": "2",
        "type": "t_mapping(t_uint256,t_struct(Marketplace)5900_storage)"
      },
      {
        "astId": 5911,
        "contract": "contracts/MarketRegistry.sol:MarketRegistry",
        "label": "_uriToId",
        "offset": 0,
        "slot": "3",
        "type": "t_mapping(t_bytes32,t_uint256)"
      },
      {
        "astId": 5913,
        "contract": "contracts/MarketRegistry.sol:MarketRegistry",
        "label": "marketCount",
        "offset": 0,
        "slot": "4",
        "type": "t_uint256"
      },
      {
        "astId": 5915,
        "contract": "contracts/MarketRegistry.sol:MarketRegistry",
        "label": "_isAttesting",
        "offset": 0,
        "slot": "5",
        "type": "t_bool"
      }
    ],
    "types": {
      "t_address": {
        "encoding": "inplace",
        "label": "address",
        "numberOfBytes": "20"
      },
      "t_array(t_bytes32)dyn_storage": {
        "base": "t_bytes32",
        "encoding": "dynamic_array",
        "label": "bytes32[]",
        "numberOfBytes": "32"
      },
      "t_bool": {
        "encoding": "inplace",
        "label": "bool",
        "numberOfBytes": "1"
      },
      "t_bytes32": {
        "encoding": "inplace",
        "label": "bytes32",
        "numberOfBytes": "32"
      },
      "t_mapping(t_address,t_bytes32)": {
        "encoding": "mapping",
        "key": "t_address",
        "label": "mapping(address => bytes32)",
        "numberOfBytes": "32",
        "value": "t_bytes32"
      },
      "t_mapping(t_bytes32,t_uint256)": {
        "encoding": "mapping",
        "key": "t_bytes32",
        "label": "mapping(bytes32 => uint256)",
        "numberOfBytes": "32",
        "value": "t_uint256"
      },
      "t_mapping(t_uint256,t_struct(Marketplace)5900_storage)": {
        "encoding": "mapping",
        "key": "t_uint256",
        "label": "mapping(uint256 => struct MarketRegistry.Marketplace)",
        "numberOfBytes": "32",
        "value": "t_struct(Marketplace)5900_storage"
      },
      "t_string_storage": {
        "encoding": "bytes",
        "label": "string",
        "numberOfBytes": "32"
      },
      "t_struct(AddressSet)4296_storage": {
        "encoding": "inplace",
        "label": "struct EnumerableSet.AddressSet",
        "members": [
          {
            "astId": 4295,
            "contract": "contracts/MarketRegistry.sol:MarketRegistry",
            "label": "_inner",
            "offset": 0,
            "slot": "0",
            "type": "t_struct(Set)3995_storage"
          }
        ],
        "numberOfBytes": "64"
      },
      "t_struct(Marketplace)5900_storage": {
        "encoding": "inplace",
        "label": "struct MarketRegistry.Marketplace",
        "members": [
          {
            "astId": 5888,
            "contract": "contracts/MarketRegistry.sol:MarketRegistry",
            "label": "owner",
            "offset": 0,
            "slot": "0",
            "type": "t_address"
          },
          {
            "astId": 5890,
            "contract": "contracts/MarketRegistry.sol:MarketRegistry",
            "label": "metadataURI",
            "offset": 0,
            "slot": "1",
            "type": "t_string_storage"
          },
          {
            "astId": 5892,
            "contract": "contracts/MarketRegistry.sol:MarketRegistry",
            "label": "lenderAttestationRequired",
            "offset": 0,
            "slot": "2",
            "type": "t_bool"
          },
          {
            "astId": 5895,
            "contract": "contracts/MarketRegistry.sol:MarketRegistry",
            "label": "verifiedLendersForMarket",
            "offset": 0,
            "slot": "3",
            "type": "t_struct(AddressSet)4296_storage"
          },
          {
            "astId": 5899,
            "contract": "contracts/MarketRegistry.sol:MarketRegistry",
            "label": "lenderAttestationIds",
            "offset": 0,
            "slot": "5",
            "type": "t_mapping(t_address,t_bytes32)"
          }
        ],
        "numberOfBytes": "192"
      },
      "t_struct(Set)3995_storage": {
        "encoding": "inplace",
        "label": "struct EnumerableSet.Set",
        "members": [
          {
            "astId": 3990,
            "contract": "contracts/MarketRegistry.sol:MarketRegistry",
            "label": "_values",
            "offset": 0,
            "slot": "0",
            "type": "t_array(t_bytes32)dyn_storage"
          },
          {
            "astId": 3994,
            "contract": "contracts/MarketRegistry.sol:MarketRegistry",
            "label": "_indexes",
            "offset": 0,
            "slot": "1",
            "type": "t_mapping(t_bytes32,t_uint256)"
          }
        ],
        "numberOfBytes": "64"
      },
      "t_uint256": {
        "encoding": "inplace",
        "label": "uint256",
        "numberOfBytes": "32"
      }
    }
  }
}