{
  "address": "0x6b187A660a803B8FB95ddba1d25feafb25e517bf",
  "abi": [
    {
      "inputs": [
        {
          "internalType": "uint256",
          "name": "bidId",
          "type": "uint256"
        },
        {
          "internalType": "string",
          "name": "action",
          "type": "string"
        },
        {
          "internalType": "string",
          "name": "message",
          "type": "string"
        }
      ],
      "name": "ActionNotAllowed",
      "type": "error"
    },
    {
      "inputs": [
        {
          "internalType": "uint256",
          "name": "bidId",
          "type": "uint256"
        },
        {
          "internalType": "uint256",
          "name": "payment",
          "type": "uint256"
        },
        {
          "internalType": "uint256",
          "name": "minimumOwed",
          "type": "uint256"
        }
      ],
      "name": "PaymentNotMinimum",
      "type": "error"
    },
    {
      "anonymous": false,
      "inputs": [
        {
          "indexed": true,
          "internalType": "uint256",
          "name": "bidId",
          "type": "uint256"
        },
        {
          "indexed": true,
          "internalType": "address",
          "name": "lender",
          "type": "address"
        }
      ],
      "name": "AcceptedBid",
      "type": "event"
    },
    {
      "anonymous": false,
      "inputs": [
        {
          "indexed": true,
          "internalType": "uint256",
          "name": "bidId",
          "type": "uint256"
        }
      ],
      "name": "CancelledBid",
      "type": "event"
    },
    {
      "anonymous": false,
      "inputs": [
        {
          "indexed": true,
          "internalType": "uint256",
          "name": "bidId",
          "type": "uint256"
        }
      ],
      "name": "LoanRepaid",
      "type": "event"
    },
    {
      "anonymous": false,
      "inputs": [
        {
          "indexed": true,
          "internalType": "uint256",
          "name": "bidId",
          "type": "uint256"
        }
      ],
      "name": "LoanRepayment",
      "type": "event"
    },
    {
      "anonymous": false,
      "inputs": [
        {
          "indexed": true,
          "internalType": "address",
          "name": "previousOwner",
          "type": "address"
        },
        {
          "indexed": true,
          "internalType": "address",
          "name": "newOwner",
          "type": "address"
        }
      ],
      "name": "OwnershipTransferred",
      "type": "event"
    },
    {
      "anonymous": false,
      "inputs": [
        {
          "indexed": false,
          "internalType": "uint16",
          "name": "newFee",
          "type": "uint16"
        },
        {
          "indexed": false,
          "internalType": "uint16",
          "name": "oldFee",
          "type": "uint16"
        }
      ],
      "name": "ProtocolFeeSet",
      "type": "event"
    },
    {
      "anonymous": false,
      "inputs": [
        {
          "indexed": true,
          "internalType": "uint256",
          "name": "bidId",
          "type": "uint256"
        },
        {
          "indexed": true,
          "internalType": "address",
          "name": "borrower",
          "type": "address"
        },
        {
          "indexed": false,
          "internalType": "address",
          "name": "receiver",
          "type": "address"
        },
        {
          "indexed": true,
          "internalType": "bytes32",
          "name": "metadataURI",
          "type": "bytes32"
        }
      ],
      "name": "SubmittedBid",
      "type": "event"
    },
    {
      "inputs": [
        {
          "internalType": "address",
          "name": "_lendingToken",
          "type": "address"
        }
      ],
      "name": "addLendingToken",
      "outputs": [],
      "stateMutability": "nonpayable",
      "type": "function"
    },
    {
      "inputs": [],
      "name": "bidId",
      "outputs": [
        {
          "internalType": "uint256",
          "name": "",
          "type": "uint256"
        }
      ],
      "stateMutability": "view",
      "type": "function"
    },
    {
      "inputs": [
        {
          "internalType": "uint256",
          "name": "",
          "type": "uint256"
        }
      ],
      "name": "bids",
      "outputs": [
        {
          "internalType": "address",
          "name": "borrower",
          "type": "address"
        },
        {
          "internalType": "address",
          "name": "receiver",
          "type": "address"
        },
        {
          "internalType": "address",
          "name": "lender",
          "type": "address"
        },
        {
          "internalType": "uint256",
          "name": "marketplaceId",
          "type": "uint256"
        },
        {
          "internalType": "bytes32",
          "name": "metadataURI",
          "type": "bytes32"
        },
        {
          "components": [
            {
              "internalType": "contract IERC20",
              "name": "lendingToken",
              "type": "address"
            },
            {
              "internalType": "uint256",
              "name": "principal",
              "type": "uint256"
            },
            {
              "components": [
                {
                  "internalType": "uint256",
                  "name": "interest",
                  "type": "uint256"
                },
                {
                  "internalType": "uint256",
                  "name": "principal",
                  "type": "uint256"
                }
              ],
              "internalType": "struct TellerV2.Payment",
              "name": "totalRepaid",
              "type": "tuple"
            },
            {
              "internalType": "uint32",
              "name": "timestamp",
              "type": "uint32"
            },
            {
              "internalType": "uint32",
              "name": "acceptedTimestamp",
              "type": "uint32"
            },
            {
              "internalType": "uint32",
              "name": "lastRepaidTimestamp",
              "type": "uint32"
            },
            {
              "internalType": "uint32",
              "name": "loanDuration",
              "type": "uint32"
            }
          ],
          "internalType": "struct TellerV2.LoanDetails",
          "name": "loanDetails",
          "type": "tuple"
        },
        {
          "components": [
            {
              "internalType": "uint32",
              "name": "paymentCycle",
              "type": "uint32"
            },
            {
              "internalType": "uint16",
              "name": "APY",
              "type": "uint16"
            }
          ],
          "internalType": "struct TellerV2.Terms",
          "name": "terms",
          "type": "tuple"
        },
        {
          "internalType": "enum TellerV2.BidState",
          "name": "state",
          "type": "uint8"
        }
      ],
      "stateMutability": "view",
      "type": "function"
    },
    {
      "inputs": [
        {
          "internalType": "address",
          "name": "",
          "type": "address"
        },
        {
          "internalType": "uint256",
          "name": "",
          "type": "uint256"
        }
      ],
      "name": "borrowerBids",
      "outputs": [
        {
          "internalType": "uint256",
          "name": "",
          "type": "uint256"
        }
      ],
      "stateMutability": "view",
      "type": "function"
    },
    {
      "inputs": [
        {
          "internalType": "uint256",
          "name": "_bidId",
          "type": "uint256"
        },
        {
          "internalType": "uint256",
          "name": "_timestamp",
          "type": "uint256"
        }
      ],
      "name": "calculateAmountDue",
      "outputs": [
        {
          "components": [
            {
              "internalType": "uint256",
              "name": "interest",
              "type": "uint256"
            },
            {
              "internalType": "uint256",
              "name": "principal",
              "type": "uint256"
            }
          ],
          "internalType": "struct TellerV2.Payment",
          "name": "",
          "type": "tuple"
        }
      ],
      "stateMutability": "view",
      "type": "function"
    },
    {
      "inputs": [
        {
          "internalType": "uint256",
          "name": "_bidId",
          "type": "uint256"
        }
      ],
      "name": "calculateAmountDue",
      "outputs": [
        {
          "components": [
            {
              "internalType": "uint256",
              "name": "interest",
              "type": "uint256"
            },
            {
              "internalType": "uint256",
              "name": "principal",
              "type": "uint256"
            }
          ],
          "internalType": "struct TellerV2.Payment",
          "name": "",
          "type": "tuple"
        }
      ],
      "stateMutability": "view",
      "type": "function"
    },
    {
      "inputs": [
        {
          "internalType": "uint256",
          "name": "_bidId",
          "type": "uint256"
        },
        {
          "internalType": "uint256",
          "name": "_timestamp",
          "type": "uint256"
        }
      ],
      "name": "calculateAmountOwed",
      "outputs": [
        {
          "components": [
            {
              "internalType": "uint256",
              "name": "interest",
              "type": "uint256"
            },
            {
              "internalType": "uint256",
              "name": "principal",
              "type": "uint256"
            }
          ],
          "internalType": "struct TellerV2.Payment",
          "name": "",
          "type": "tuple"
        }
      ],
      "stateMutability": "view",
      "type": "function"
    },
    {
      "inputs": [
        {
          "internalType": "uint256",
          "name": "_bidId",
          "type": "uint256"
        }
      ],
      "name": "calculateAmountOwed",
      "outputs": [
        {
          "components": [
            {
              "internalType": "uint256",
              "name": "interest",
              "type": "uint256"
            },
            {
              "internalType": "uint256",
              "name": "principal",
              "type": "uint256"
            }
          ],
          "internalType": "struct TellerV2.Payment",
          "name": "",
          "type": "tuple"
        }
      ],
      "stateMutability": "view",
      "type": "function"
    },
    {
      "inputs": [
        {
          "internalType": "uint256",
          "name": "_bidId",
          "type": "uint256"
        }
      ],
      "name": "calculateNextDueDate",
      "outputs": [
        {
          "internalType": "uint32",
          "name": "dueDate_",
          "type": "uint32"
        }
      ],
      "stateMutability": "view",
      "type": "function"
    },
    {
      "inputs": [
        {
          "internalType": "uint256",
          "name": "_bidId",
          "type": "uint256"
        }
      ],
      "name": "cancelBid",
      "outputs": [],
      "stateMutability": "nonpayable",
      "type": "function"
    },
    {
      "inputs": [],
      "name": "getLendingTokens",
      "outputs": [
        {
          "internalType": "address[]",
          "name": "",
          "type": "address[]"
        }
      ],
      "stateMutability": "view",
      "type": "function"
    },
    {
      "inputs": [
        {
          "internalType": "uint16",
          "name": "_protocolFee",
          "type": "uint16"
        },
        {
          "internalType": "address",
          "name": "_marketRegistry",
          "type": "address"
        },
        {
          "internalType": "address[]",
          "name": "_lendingTokens",
          "type": "address[]"
        }
      ],
      "name": "initialize",
      "outputs": [],
      "stateMutability": "nonpayable",
      "type": "function"
    },
    {
      "inputs": [
        {
          "internalType": "uint256",
          "name": "_bidId",
          "type": "uint256"
        }
      ],
      "name": "isPaymentLate",
      "outputs": [
        {
          "internalType": "bool",
          "name": "",
          "type": "bool"
        }
      ],
      "stateMutability": "view",
      "type": "function"
    },
    {
      "inputs": [
        {
          "internalType": "uint256",
          "name": "_bidId",
          "type": "uint256"
        }
      ],
      "name": "lastRepaidTimestamp",
      "outputs": [
        {
          "internalType": "uint32",
          "name": "",
          "type": "uint32"
        }
      ],
      "stateMutability": "view",
      "type": "function"
    },
    {
      "inputs": [
        {
          "internalType": "uint256",
          "name": "_bidId",
          "type": "uint256"
        }
      ],
      "name": "lenderAcceptBid",
      "outputs": [],
      "stateMutability": "nonpayable",
      "type": "function"
    },
    {
      "inputs": [
        {
          "internalType": "address",
          "name": "",
          "type": "address"
        }
      ],
      "name": "lenderVolumeFilled",
      "outputs": [
        {
          "internalType": "uint256",
          "name": "",
          "type": "uint256"
        }
      ],
      "stateMutability": "view",
      "type": "function"
    },
    {
      "inputs": [],
      "name": "owner",
      "outputs": [
        {
          "internalType": "address",
          "name": "",
          "type": "address"
        }
      ],
      "stateMutability": "view",
      "type": "function"
    },
    {
      "inputs": [],
      "name": "protocolFee",
      "outputs": [
        {
          "internalType": "uint16",
          "name": "",
          "type": "uint16"
        }
      ],
      "stateMutability": "view",
      "type": "function"
    },
    {
      "inputs": [
        {
          "internalType": "address",
          "name": "_lendingToken",
          "type": "address"
        }
      ],
      "name": "removeLendingToken",
      "outputs": [],
      "stateMutability": "nonpayable",
      "type": "function"
    },
    {
      "inputs": [],
      "name": "renounceOwnership",
      "outputs": [],
      "stateMutability": "nonpayable",
      "type": "function"
    },
    {
      "inputs": [
        {
          "internalType": "uint256",
          "name": "_bidId",
          "type": "uint256"
        },
        {
          "internalType": "uint256",
          "name": "_amount",
          "type": "uint256"
        }
      ],
      "name": "repayLoan",
      "outputs": [],
      "stateMutability": "nonpayable",
      "type": "function"
    },
    {
      "inputs": [
        {
          "internalType": "uint256",
          "name": "_bidId",
          "type": "uint256"
        }
      ],
      "name": "repayLoanFull",
      "outputs": [],
      "stateMutability": "nonpayable",
      "type": "function"
    },
    {
      "inputs": [
        {
          "internalType": "uint256",
          "name": "_bidId",
          "type": "uint256"
        }
      ],
      "name": "repayLoanMinimum",
      "outputs": [],
      "stateMutability": "nonpayable",
      "type": "function"
    },
    {
      "inputs": [
        {
          "internalType": "uint16",
          "name": "newFee",
          "type": "uint16"
        }
      ],
      "name": "setProtocolFee",
      "outputs": [],
      "stateMutability": "nonpayable",
      "type": "function"
    },
    {
      "inputs": [
        {
          "internalType": "address",
          "name": "_lendingToken",
          "type": "address"
        },
        {
          "internalType": "uint256",
          "name": "_marketplaceId",
          "type": "uint256"
        },
        {
          "internalType": "uint256",
          "name": "_principal",
          "type": "uint256"
        },
        {
          "internalType": "uint16",
          "name": "_APY",
          "type": "uint16"
        },
        {
          "internalType": "uint32",
          "name": "_paymentCycle",
          "type": "uint32"
        },
        {
          "internalType": "bytes32",
          "name": "_metadataURI",
          "type": "bytes32"
        },
        {
          "internalType": "address",
          "name": "_receiver",
          "type": "address"
        }
      ],
      "name": "submitBid",
      "outputs": [],
      "stateMutability": "nonpayable",
      "type": "function"
    },
    {
      "inputs": [],
      "name": "totalVolumeFilled",
      "outputs": [
        {
          "internalType": "uint256",
          "name": "",
          "type": "uint256"
        }
      ],
      "stateMutability": "view",
      "type": "function"
    },
    {
      "inputs": [
        {
          "internalType": "address",
          "name": "newOwner",
          "type": "address"
        }
      ],
      "name": "transferOwnership",
      "outputs": [],
      "stateMutability": "nonpayable",
      "type": "function"
    }
  ],
  "artifactName": "TellerV2",
  "transactionHash": "0x505053e6f1c288c40350d83ec98e93edd468adef62334dc1d29075971822bfed",
  "args": [],
  "solcInputHash": "98677f32543e021ed724a7a87aae15c4",
  "bytecode": "0x6080604052600060665534801561001557600080fd5b506125d3806100256000396000f3fe608060405234801561001057600080fd5b50600436106101a95760003560e01c80638ac47319116100f9578063ae48043611610097578063d76ac91f11610071578063d76ac91f14610494578063d974cc57146104a7578063e4467f35146104ba578063f2fde38b146104cd57600080fd5b8063ae48043614610458578063b0e21e8a1461046b578063d4eda4cf1461048157600080fd5b80639a11e339116100d35780639a11e3391461040c578063a51e2bad1461041f578063a75021ba14610432578063a8cb5d681461044557600080fd5b80638ac47319146103d55780638da5cb5b146103de5780639703ef35146103f957600080fd5b8063528e0bc5116101665780636c6ca79c116101405780636c6ca79c1461037f578063706a43c314610392578063715018a6146103ba5780638a700b53146103c257600080fd5b8063528e0bc514610337578063697b817c146103575780636aedfe681461036c57600080fd5b8063093f5617146101ae5780631042b85f146101d6578063235d5a7b146101f65780633783530e1461020b5780633819bcdc146102225780634423c5f114610235575b600080fd5b6101c16101bc3660046120cd565b6104e0565b60405190151581526020015b60405180910390f35b6101e96101e43660046120e6565b61057d565b6040516101cd9190612321565b6101fe610610565b6040516101cd9190612241565b610214606a5481565b6040519081526020016101cd565b610214610230366004611efb565b610621565b6103236102433660046120cd565b60676020908152600091825260409182902080546001820154600283015460038401546004850154875160e08101895260058701546001600160a01b0390811682526006880154828a01528951808b018b52600789015481526008890154818b0152828b0152600988015463ffffffff8082166060850152600160201b80830482166080860152600160401b8304821660a0860152600160601b909204811660c08501528b51808d01909c52600a8a01549081168c520461ffff16988a0198909852600b9096015494871697938716969092169490939192909160ff1688565b6040516101cd989796959493929190612172565b610214610345366004611ee0565b60696020526000908152604090205481565b61036a610365366004611fde565b610652565b005b6101e961037a3660046120e6565b610839565b6101e961038d3660046120cd565b6108e3565b6103a56103a03660046120cd565b61098d565b60405163ffffffff90911681526020016101cd565b61036a610b1e565b61036a6103d03660046120e6565b610b54565b61021460665481565b6033546040516001600160a01b0390911681526020016101cd565b61036a6104073660046120cd565b610c78565b61036a61041a3660046120cd565b610db3565b6103a561042d3660046120cd565b610e4d565b61036a610440366004611ee0565b610edd565b61036a6104533660046120cd565b610f16565b61036a610466366004611f25565b6111a1565b60655460405161ffff90911681526020016101cd565b61036a61048f3660046120cd565b61134f565b61036a6104a2366004611ee0565b611403565b6101e96104b53660046120cd565b61148f565b61036a6104c8366004611fc3565b61153d565b61036a6104db366004611ee0565b6115d1565b60408051808201909152600d81526c69735061796d656e744c61746560981b6020820152600090829060036000838152606760205260409020600b015460ff16600481111561053157610531612545565b1461055c5781816040516347bc33cb60e11b8152600401610553929190612385565b60405180910390fd5b6105658461098d565b63ffffffff164263ffffffff161192505b5050919050565b604080518082019091526000808252602082015260008381526067602052604090206009810154600160201b900463ffffffff168310156105fc5760405162461bcd60e51b81526020600482015260196024820152781d1a5b595cdd185b5c081899599bdc99481858d8d95c1d1959603a1b6044820152606401610553565b6106068184611669565b9150505b92915050565b606061061c606b6116f7565b905090565b6068602052816000526040600020818154811061063d57600080fd5b90600052602060002001600091509150505481565b600054610100900460ff1661066d5760005460ff1615610671565b303b155b6106d45760405162461bcd60e51b815260206004820152602e60248201527f496e697469616c697a61626c653a20636f6e747261637420697320616c72656160448201526d191e481a5b9a5d1a585b1a5e995960921b6064820152608401610553565b600054610100900460ff161580156106f6576000805461ffff19166101011790555b6106ff8461170b565b606d80546001600160a01b0319166001600160a01b03851617905581516107685760405162461bcd60e51b815260206004820152601b60248201527f4e6f206c656e64696e6720746f6b656e732073706563696669656400000000006044820152606401610553565b60005b8251811015610820576107a083828151811061078957610789612571565b60200260200101516001600160a01b03163b151590565b6107ec5760405162461bcd60e51b815260206004820152601a60248201527f6c656e64696e6720746f6b656e206e6f7420636f6e74726163740000000000006044820152606401610553565b61080e83828151811061080157610801612571565b6020026020010151611403565b80610818816124fe565b91505061076b565b508015610833576000805461ff00191690555b50505050565b604080518082019091526000808252602082015260008381526067602052604090206009810154600160201b900463ffffffff168310156108b85760405162461bcd60e51b81526020600482015260196024820152781d1a5b595cdd185b5c081899599bdc99481858d8d95c1d1959603a1b6044820152606401610553565b610606816108c68386611669565b604080518082019091526000808252602082015290518152919050565b604080518082019091526000808252602082015260408051808201909152601381527218d85b18dd5b185d19505b5bdd5b9d13ddd959606a1b6020820152829060036000838152606760205260409020600b015460ff16600481111561094b5761094b612545565b1461096d5781816040516347bc33cb60e11b8152600401610553929190612385565b60008481526067602052604090206109859042611669565b949350505050565b60408051808201909152601481527363616c63756c6174654e6578744475654461746560601b6020820152600090829060036000838152606760205260409020600b015460ff1660048111156109e5576109e5612545565b14610a075781816040516347bc33cb60e11b8152600401610553929190612385565b60008481526067602052604090206009810154600160601b900463ffffffff1615610a6f576009810154600090610a549063ffffffff600160601b8204811691600160201b9004166123ec565b90508063ffffffff16421115610a6d5793506105769050565b505b600a8101546009820154610a939163ffffffff90811691600160201b9004166123ec565b6009820154909450600090600160201b900463ffffffff16610ab487610e4d565b610abe91906124ad565b905063ffffffff811615610b1557600a820154600090610ae49063ffffffff1683612428565b610aef9060016123ec565b600a840154909150610b079063ffffffff168261246a565b610b1190876123ec565b9550505b50505050919050565b6033546001600160a01b03163314610b485760405162461bcd60e51b8152600401610553906122a1565b610b526000611743565b565b6040805180820190915260098152683932b830bca637b0b760b91b6020820152829060036000838152606760205260409020600b015460ff166004811115610b9e57610b9e612545565b14610bc05781816040516347bc33cb60e11b8152600401610553929190612385565b600084815260676020526040812090610bd98242611669565b6040805180820190915260008082526020820181905282518083529293509091610c0390826123d4565b905080871015610c365760405162dd9d0f60e61b8152600481018990526024810188905260448101829052606401610553565b600060405180604001604052808460000151815260200184600001518a610c5d9190612496565b90529050610c6d89868387611795565b505050505050505050565b60408051808201909152600981526818d85b98d95b109a5960ba1b6020820152819060016000838152606760205260409020600b015460ff166004811115610cc257610cc2612545565b14610ce45781816040516347bc33cb60e11b8152600401610553929190612338565b600083815260676020526040902080546001600160a01b03163314610d73576040516347bc33cb60e11b81526004810185905260606024820152600960648201526818d85b98d95b109a5960ba1b608482015260a06044820152601e60a48201527f4f6e6c792074686520626964206f776e65722063616e2063616e63656c21000060c482015260e401610553565b600b8101805460ff1916600217905560405184907fa0633b09ac3029a6746aa27d4db1407f5f287a10c41a6b2ad2859f4da9b2680b90600090a250505050565b6040805180820190915260098152683932b830bca637b0b760b91b6020820152819060036000838152606760205260409020600b015460ff166004811115610dfd57610dfd612545565b14610e1f5781816040516347bc33cb60e11b8152600401610553929190612385565b600083815260676020526040812090610e388242611669565b9050610e4685838384611795565b5050505050565b60408051808201909152601381527206c61737452657061696454696d657374616d7606c1b6020820152600090829060036000838152606760205260409020600b015460ff166004811115610ea457610ea4612545565b14610ec65781816040516347bc33cb60e11b8152600401610553929190612385565b600084815260676020526040902061098590611941565b6033546001600160a01b03163314610f075760405162461bcd60e51b8152600401610553906122a1565b610f12606b82611987565b5050565b60408051808201909152600f81526e1b195b99195c9058d8d95c1d109a59608a1b6020820152819060016000838152606760205260409020600b015460ff166004811115610f6657610f66612545565b14610f885781816040516347bc33cb60e11b8152600401610553929190612338565b6000838152606760205260409020606d5460038201546001600160a01b0390911690633ef19a9b90336040516001600160e01b031960e085901b16815260048101929092526001600160a01b03166024820152604401602060405180830381600087803b158015610ff857600080fd5b505af115801561100c573d6000803e3d6000fd5b505050506040513d601f19601f820116820180604052508101906110309190611fa1565b6110725760405162461bcd60e51b81526020600482015260136024820152722737ba103b32b934b334b2b2103632b73232b960691b6044820152606401610553565b60098101805467ffffffff000000001916600160201b4263ffffffff1602179055600b81018054600360ff199091161790556002810180546001600160a01b0319163317905560655460068201546000916110d1919061ffff1661199c565b905060008183600501600101546110e89190612496565b90506111273360018501546001600160a01b03168361110f6033546001600160a01b031690565b60058801546001600160a01b031693929190876119b9565b6006830154336000908152606960205260408120805490919061114b9084906123d4565b90915550506006830154606a80546000906111679084906123d4565b9091555050604051339087907fde9d3bfa8771df6761c0afac2375c88c70a3aa30478e1bd15363294033b470ed90600090a3505050505050565b6111ac606b886119e3565b6111f85760405162461bcd60e51b815260206004820152601c60248201527f4c656e64696e6720746f6b656e206e6f7420617574686f72697a6564000000006044820152606401610553565b606654600090815260676020526040902080546001600160a01b031916331781556001600160a01b03821661122d573361122f565b815b600182810180546001600160a01b03199081166001600160a01b03948516908117909255600385018b90556005850180549091168c85161790556006840189905560098401805463ffffffff19164263ffffffff90811691909117909155600a8501805491891665ffffffffffff1990921691909117600160201b61ffff8b160217905560048401869055600b8401805460ff1916909217909155825460665460408051938452518794929092169290917ff887b1f393f43fb94c5d50483df4bd410ffbf286128c5f24ff56c580ac7f731c9181900360200190a4336000908152606860209081526040822060668054825460018101845592855292842090910191909155805491611340836124fe565b91905055505050505050505050565b6040805180820190915260098152683932b830bca637b0b760b91b6020820152819060036000838152606760205260409020600b015460ff16600481111561139957611399612545565b146113bb5781816040516347bc33cb60e11b8152600401610553929190612385565b6000838152606760205260408120906113d48242611669565b6040805180820190915260008082526020820152815181529091506113fb86848385611795565b505050505050565b6033546001600160a01b0316331461142d5760405162461bcd60e51b8152600401610553906122a1565b6001600160a01b0381163b6114845760405162461bcd60e51b815260206004820152601f60248201527f496e636f7272656374206c656e64696e6720746f6b656e2061646472657373006044820152606401610553565b610f12606b82611a05565b604080518082019091526000808252602082015260408051808201909152601281527163616c63756c617465416d6f756e7444756560701b6020820152829060036000838152606760205260409020600b015460ff1660048111156114f6576114f6612545565b146115185781816040516347bc33cb60e11b8152600401610553929190612385565b6000848152606760205260409020611534816108c68142611669565b95945050505050565b6033546001600160a01b031633146115675760405162461bcd60e51b8152600401610553906122a1565b60655461ffff8281169116141561157b5750565b6065805461ffff83811661ffff198316811790935560408051938452911660208301819052917f4810ece076cee6c6042808956f3f65dad1bc72b75181341d7bed810d39deda0f910160405180910390a1505b50565b6033546001600160a01b031633146115fb5760405162461bcd60e51b8152600401610553906122a1565b6001600160a01b0381166116605760405162461bcd60e51b815260206004820152602660248201527f4f776e61626c653a206e6577206f776e657220697320746865207a65726f206160448201526564647265737360d01b6064820152608401610553565b6115ce81611743565b6040805180820190915260008082526020820152600883015460068401546116919190612496565b60208201819052600a8401546000916116b491600160201b900461ffff1661199c565b905060006116c185611941565b6116d19063ffffffff1685612496565b90506301e133806116e2828461244b565b6116ec9190612414565b835250909392505050565b6060600061170483611a1a565b9392505050565b600054610100900460ff166117325760405162461bcd60e51b8152600401610553906122d6565b61173a611a76565b6115ce81611aad565b603380546001600160a01b038381166001600160a01b0319831681179093556040519116919082907f8be0079c531659141344cd1fd0a4f28419497f9722a3daafe3b4186f6b6457e090600090a35050565b815160208301516000916117a8916123d4565b90506000826000015183602001516117c091906123d4565b905080821061180d57600b8501805460ff19166004179055604051909150819086907f9a7851747cd7ffb3fe0a32caf3da48b31f27cebe131267051640f8b72fc4718690600090a2611839565b60405186907f68ca97895fe2d09eab47e752271728ade667e72dda27e68c20eaa191a9c2187d90600090a25b60058501546001600160a01b03166323b872dd33600288015460405160e084901b6001600160e01b03191681526001600160a01b0392831660048201529116602482015260448101859052606401602060405180830381600087803b1580156118a157600080fd5b505af11580156118b5573d6000803e3d6000fd5b505050506040513d601f19601f820116820180604052508101906118d99190611fa1565b5060208401516008860180546000906118f39084906123d4565b9091555050835160078601805460009061190e9084906123d4565b9091555050505060099290920180546bffffffff00000000000000001916600160401b4263ffffffff1602179055505050565b6009810154600090600160401b900463ffffffff1615611972576009820154600160401b900463ffffffff1661060a565b5060090154600160201b900463ffffffff1690565b6000611704836001600160a01b038416611add565b60006127106119af61ffff84168561244b565b6117049190612414565b6119ce6001600160a01b038716868686611bd0565b6113fb6001600160a01b038716868484611bd0565b6001600160a01b03811660009081526001830160205260408120541515611704565b6000611704836001600160a01b038416611c2a565b606081600001805480602002602001604051908101604052809291908181526020018280548015611a6a57602002820191906000526020600020905b815481526020019060010190808311611a56575b50505050509050919050565b600054610100900460ff16611a9d5760405162461bcd60e51b8152600401610553906122d6565b611aa5611c79565b610b52611ca0565b600054610100900460ff16611ad45760405162461bcd60e51b8152600401610553906122d6565b6115ce8161153d565b60008181526001830160205260408120548015611bc6576000611b01600183612496565b8554909150600090611b1590600190612496565b9050818114611b7a576000866000018281548110611b3557611b35612571565b9060005260206000200154905080876000018481548110611b5857611b58612571565b6000918252602080832090910192909255918252600188019052604090208390555b8554869080611b8b57611b8b61255b565b60019003818190600052602060002001600090559055856001016000868152602001908152602001600020600090556001935050505061060a565b600091505061060a565b604080516001600160a01b0385811660248301528416604482015260648082018490528251808303909101815260849091019091526020810180516001600160e01b03166323b872dd60e01b179052610833908590611cd0565b6000818152600183016020526040812054611c715750815460018181018455600084815260208082209093018490558454848252828601909352604090209190915561060a565b50600061060a565b600054610100900460ff16610b525760405162461bcd60e51b8152600401610553906122d6565b600054610100900460ff16611cc75760405162461bcd60e51b8152600401610553906122d6565b610b5233611743565b6000611d25826040518060400160405280602081526020017f5361666545524332303a206c6f772d6c6576656c2063616c6c206661696c6564815250856001600160a01b0316611da79092919063ffffffff16565b805190915015611da25780806020019051810190611d439190611fa1565b611da25760405162461bcd60e51b815260206004820152602a60248201527f5361666545524332303a204552433230206f7065726174696f6e20646964206e6044820152691bdd081cdd58d8d9595960b21b6064820152608401610553565b505050565b6060610985848460008585843b611e005760405162461bcd60e51b815260206004820152601d60248201527f416464726573733a2063616c6c20746f206e6f6e2d636f6e74726163740000006044820152606401610553565b600080866001600160a01b03168587604051611e1c9190612156565b60006040518083038185875af1925050503d8060008114611e59576040519150601f19603f3d011682016040523d82523d6000602084013e611e5e565b606091505b5091509150611e6e828286611e79565b979650505050505050565b60608315611e88575081611704565b825115611e985782518084602001fd5b8160405162461bcd60e51b8152600401610553919061228e565b80356001600160a01b0381168114611ec957600080fd5b919050565b803561ffff81168114611ec957600080fd5b600060208284031215611ef257600080fd5b61170482611eb2565b60008060408385031215611f0e57600080fd5b611f1783611eb2565b946020939093013593505050565b600080600080600080600060e0888a031215611f4057600080fd5b611f4988611eb2565b96506020880135955060408801359450611f6560608901611ece565b9350608088013563ffffffff81168114611f7e57600080fd5b925060a08801359150611f9360c08901611eb2565b905092959891949750929550565b600060208284031215611fb357600080fd5b8151801515811461170457600080fd5b600060208284031215611fd557600080fd5b61170482611ece565b600080600060608486031215611ff357600080fd5b611ffc84611ece565b9250602061200b818601611eb2565b9250604085013567ffffffffffffffff8082111561202857600080fd5b818701915087601f83011261203c57600080fd5b81358181111561204e5761204e612587565b8060051b604051601f19603f8301168101818110858211171561207357612073612587565b604052828152858101935084860182860187018c101561209257600080fd5b600095505b838610156120bc576120a881611eb2565b855260019590950194938601938601612097565b508096505050505050509250925092565b6000602082840312156120df57600080fd5b5035919050565b600080604083850312156120f957600080fd5b50508035926020909101359150565b6005811061212657634e487b7160e01b600052602160045260246000fd5b9052565b600081518084526121428160208601602086016124d2565b601f01601f19169290920160200192915050565b600082516121688184602087016124d2565b9190910192915050565b60006102008201905060018060a01b03808b168352808a16602084015280891660408401528760608401528660808401528086511660a084015250602085015160c083015260408501516121d360e084018280518252602090810151910152565b50606085015163ffffffff9081166101208401526080860151811661014084015260a0860151811661016084015260c086015181166101808401528451166101a0830152602084015161ffff166101c08301526122346101e0830184612108565b9998505050505050505050565b6020808252825182820181905260009190848201906040850190845b818110156122825783516001600160a01b03168352928401929184019160010161225d565b50909695505050505050565b602081526000611704602083018461212a565b6020808252818101527f4f776e61626c653a2063616c6c6572206973206e6f7420746865206f776e6572604082015260600190565b6020808252602b908201527f496e697469616c697a61626c653a20636f6e7472616374206973206e6f74206960408201526a6e697469616c697a696e6760a81b606082015260800190565b81518152602080830151908201526040810161060a565b828152606060208201526000612351606083018461212a565b8281036040938401526013815272426964206d7573742062652070656e64696e6760681b6020820152919091019392505050565b82815260606020820152600061239e606083018461212a565b8281036040938401526015815274131bd85b881b5d5cdd081899481858d8d95c1d1959605a1b6020820152919091019392505050565b600082198211156123e7576123e7612519565b500190565b600063ffffffff80831681851680830382111561240b5761240b612519565b01949350505050565b6000826124235761242361252f565b500490565b600063ffffffff8084168061243f5761243f61252f565b92169190910492915050565b600081600019048311821515161561246557612465612519565b500290565b600063ffffffff8083168185168183048111821515161561248d5761248d612519565b02949350505050565b6000828210156124a8576124a8612519565b500390565b600063ffffffff838116908316818110156124ca576124ca612519565b039392505050565b60005b838110156124ed5781810151838201526020016124d5565b838111156108335750506000910152565b600060001982141561251257612512612519565b5060010190565b634e487b7160e01b600052601160045260246000fd5b634e487b7160e01b600052601260045260246000fd5b634e487b7160e01b600052602160045260246000fd5b634e487b7160e01b600052603160045260246000fd5b634e487b7160e01b600052603260045260246000fd5b634e487b7160e01b600052604160045260246000fdfea26469706673582212207514c8d8b43d967206d05834193e5f0ff24564feb126fa82ed13f0f26310691964736f6c63430008060033",
  "devdoc": {
    "errors": {
      "ActionNotAllowed(uint256,string,string)": [
        {
          "params": {
            "action": "The action string (i.e: 'repayLoan', 'cancelBid', 'etc)",
            "bidId": "The id of the bid.",
            "message": "The message string to return to the user explaining why the tx was reverted"
          }
        }
      ],
      "PaymentNotMinimum(uint256,uint256,uint256)": [
        {
          "params": {
            "bidId": "The id of the bid the borrower is attempting to repay.",
            "minimumOwed": "The minimum owed value",
            "payment": "The payment made by the borrower"
          }
        }
      ]
    },
    "events": {
      "AcceptedBid(uint256,address)": {
        "params": {
          "bidId": "The id of the bid accepted.",
          "lender": "The address of the accepted bid lender."
        }
      },
      "CancelledBid(uint256)": {
        "params": {
          "bidId": "The id of the cancelled bid."
        }
      },
      "LoanRepaid(uint256)": {
        "params": {
          "bidId": "The id of the bid/loan which was repaid."
        }
      },
      "LoanRepayment(uint256)": {
        "params": {
          "bidId": "The id of the bid/loan to which the payment was made."
        }
      },
      "SubmittedBid(uint256,address,address,bytes32)": {
        "params": {
          "bidId": "The id of the bid submitted.",
          "borrower": "The address of the bid borrower.",
          "metadataURI": "URI for additional bid infomation as part of loan bid."
        }
      }
    },
    "kind": "dev",
    "methods": {
      "addLendingToken(address)": {
        "params": {
          "_lendingToken": "The contract address of the lending token."
        }
      },
      "calculateAmountDue(uint256)": {
        "params": {
          "_bidId": "The id of the loan bid to get the payment amount for."
        }
      },
      "calculateAmountDue(uint256,uint256)": {
        "params": {
          "_bidId": "The id of the loan bid to get the payment amount for.",
          "_timestamp": "The timestamp at which to get the due payment at."
        }
      },
      "calculateAmountOwed(uint256)": {
        "params": {
          "_bidId": "The id of the loan bid to caculate the owed amount for."
        }
      },
      "calculateAmountOwed(uint256,uint256)": {
        "params": {
          "_bidId": "The id of the loan bid to caculate the owed amount for.",
          "_timestamp": "The timestamp at which to cacluate the loan owed amount at."
        }
      },
      "calculateNextDueDate(uint256)": {
        "params": {
          "_bidId": "The id of the loan bid."
        }
      },
      "cancelBid(uint256)": {
        "params": {
          "_bidId": "The id of the bid to be cancelled."
        }
      },
      "initialize(uint16,address,address[])": {
        "params": {
          "_lendingTokens": "The list of tokens allowed as lending assets on the protocol.",
          "_protocolFee": "The fee collected by the protocol for loan processing."
        }
      },
      "isPaymentLate(uint256)": {
        "params": {
          "_bidId": "The id of the loan bid to check for."
        }
      },
      "lastRepaidTimestamp(uint256)": {
        "params": {
          "_bidId": "The id of the loan bid to get the timestamp for."
        }
      },
      "lenderAcceptBid(uint256)": {
        "params": {
          "_bidId": "The id of the loan bid to accept."
        }
      },
      "owner()": {
        "details": "Returns the address of the current owner."
      },
      "removeLendingToken(address)": {
        "params": {
          "_lendingToken": "The contract address of the lending token."
        }
      },
      "renounceOwnership()": {
        "details": "Leaves the contract without owner. It will not be possible to call `onlyOwner` functions anymore. Can only be called by the current owner. NOTE: Renouncing ownership will leave the contract without an owner, thereby removing any functionality that is only available to the owner."
      },
      "repayLoan(uint256,uint256)": {
        "params": {
          "_amount": "The amount of the payment.",
          "_bidId": "The id of the loan to make the payment towards."
        }
      },
      "repayLoanFull(uint256)": {
        "params": {
          "_bidId": "The id of the loan to make the payment towards."
        }
      },
      "repayLoanMinimum(uint256)": {
        "params": {
          "_bidId": "The id of the loan to make the payment towards."
        }
      },
      "setProtocolFee(uint16)": {
        "params": {
          "newFee": "The new protocol fee to be set."
        }
      },
      "submitBid(address,uint256,uint256,uint16,uint32,bytes32,address)": {
        "params": {
          "_APY": "The proposed interest rate for the loan bid.",
          "_lendingToken": "The lending token asset requested to be borrowed.",
          "_metadataURI": "The URI for additional borrower loan infomation as part of loan bid.",
          "_paymentCycle": "The recurrent length of time before which a payment is due.",
          "_principal": "The prinicpal amount of the loan bid."
        }
      },
      "transferOwnership(address)": {
        "details": "Transfers ownership of the contract to a new account (`newOwner`). Can only be called by the current owner."
      }
    },
    "version": 1
  },
  "userdoc": {
    "errors": {
      "ActionNotAllowed(uint256,string,string)": [
        {
          "notice": "This error is reverted when the action isn't allowed"
        }
      ],
      "PaymentNotMinimum(uint256,uint256,uint256)": [
        {
          "notice": "This error is reverted when repayment amount is less than the required minimum"
        }
      ]
    },
    "events": {
      "AcceptedBid(uint256,address)": {
        "notice": "This event is emitted when a bid has been accepted by a lender."
      },
      "CancelledBid(uint256)": {
        "notice": "This event is emitted when a previously submitted bid has been cancelled."
      },
      "LoanRepaid(uint256)": {
        "notice": "This event is emitted when a loan has been fully repaid."
      },
      "LoanRepayment(uint256)": {
        "notice": "This event is emitted when a payment is made towards an ative loan."
      },
      "ProtocolFeeSet(uint16,uint16)": {
        "notice": "This event is emitted when the protocol fee has been updated."
      },
      "SubmittedBid(uint256,address,address,bytes32)": {
        "notice": "This event is emitted when a new bid is submitted."
      }
    },
    "kind": "user",
    "methods": {
      "addLendingToken(address)": {
        "notice": "Lets the DAO/owner of the protocol add an authorized lending token."
      },
      "bidId()": {
        "notice": "Storage Variables "
      },
      "calculateAmountDue(uint256)": {
        "notice": "Calculates the minumum payment amount due for a loan."
      },
      "calculateAmountDue(uint256,uint256)": {
        "notice": "Calculates the minumum payment amount due for a loan at a specific timestamp."
      },
      "calculateAmountOwed(uint256)": {
        "notice": "Calculates the total amount owed for a bid."
      },
      "calculateAmountOwed(uint256,uint256)": {
        "notice": "Calculates the total amount owed for a loan bid at a specific timestamp."
      },
      "calculateNextDueDate(uint256)": {
        "notice": "Returns the next due date for a loan payment."
      },
      "cancelBid(uint256)": {
        "notice": "Function for users to cancel a bid."
      },
      "getLendingTokens()": {
        "notice": "Returns the list of authorized tokens on the protocol."
      },
      "initialize(uint16,address,address[])": {
        "notice": "Initializes the proxy."
      },
      "isPaymentLate(uint256)": {
        "notice": "Checks to see if a borrower is delinquent."
      },
      "lastRepaidTimestamp(uint256)": {
        "notice": "Returns the last repaid timestamp for a loan."
      },
      "lenderAcceptBid(uint256)": {
        "notice": "Function for a lender to accept a proposed loan bid."
      },
      "protocolFee()": {
        "notice": "Returns the current protocol fee."
      },
      "removeLendingToken(address)": {
        "notice": "Lets the DAO/owner of the protocol remove an authorized lending token."
      },
      "repayLoan(uint256,uint256)": {
        "notice": "Function for users to make a payment towards an active loan."
      },
      "repayLoanFull(uint256)": {
        "notice": "Function for users to repay an active loan in full."
      },
      "repayLoanMinimum(uint256)": {
        "notice": "Function for users to make the minimum amount due for an active loan."
      },
      "setProtocolFee(uint16)": {
        "notice": "Lets the DAO/owner of the protocol to set a new protocol fee."
      },
      "submitBid(address,uint256,uint256,uint16,uint32,bytes32,address)": {
        "notice": "Function for a borrower to create a bid for a loan."
      }
    },
    "version": 1
  },
  "storageLayout": {
    "storage": [
      {
        "astId": 132,
        "contract": "contracts/TellerV2.sol:TellerV2",
        "label": "_initialized",
        "offset": 0,
        "slot": "0",
        "type": "t_bool"
      },
      {
        "astId": 135,
        "contract": "contracts/TellerV2.sol:TellerV2",
        "label": "_initializing",
        "offset": 1,
        "slot": "0",
        "type": "t_bool"
      },
      {
        "astId": 487,
        "contract": "contracts/TellerV2.sol:TellerV2",
        "label": "__gap",
        "offset": 0,
        "slot": "1",
        "type": "t_array(t_uint256)50_storage"
      },
      {
        "astId": 10,
        "contract": "contracts/TellerV2.sol:TellerV2",
        "label": "_owner",
        "offset": 0,
        "slot": "51",
        "type": "t_address"
      },
      {
        "astId": 124,
        "contract": "contracts/TellerV2.sol:TellerV2",
        "label": "__gap",
        "offset": 0,
        "slot": "52",
        "type": "t_array(t_uint256)49_storage"
      },
      {
        "astId": 6351,
        "contract": "contracts/TellerV2.sol:TellerV2",
        "label": "_protocolFee",
        "offset": 0,
        "slot": "101",
        "type": "t_uint16"
      },
      {
        "astId": 6654,
        "contract": "contracts/TellerV2.sol:TellerV2",
        "label": "bidId",
        "offset": 0,
        "slot": "102",
        "type": "t_uint256"
      },
      {
        "astId": 6659,
        "contract": "contracts/TellerV2.sol:TellerV2",
        "label": "bids",
        "offset": 0,
        "slot": "103",
        "type": "t_mapping(t_uint256,t_struct(Bid)6639_storage)"
      },
      {
        "astId": 6664,
        "contract": "contracts/TellerV2.sol:TellerV2",
        "label": "borrowerBids",
        "offset": 0,
        "slot": "104",
        "type": "t_mapping(t_address,t_array(t_uint256)dyn_storage)"
      },
      {
        "astId": 6668,
        "contract": "contracts/TellerV2.sol:TellerV2",
        "label": "lenderVolumeFilled",
        "offset": 0,
        "slot": "105",
        "type": "t_mapping(t_address,t_uint256)"
      },
      {
        "astId": 6670,
        "contract": "contracts/TellerV2.sol:TellerV2",
        "label": "totalVolumeFilled",
        "offset": 0,
        "slot": "106",
        "type": "t_uint256"
      },
      {
        "astId": 6673,
        "contract": "contracts/TellerV2.sol:TellerV2",
        "label": "lendingTokensSet",
        "offset": 0,
        "slot": "107",
        "type": "t_struct(AddressSet)4296_storage"
      },
      {
        "astId": 6676,
        "contract": "contracts/TellerV2.sol:TellerV2",
        "label": "marketRegistry",
        "offset": 0,
        "slot": "109",
        "type": "t_contract(IMarketRegistry)8275"
      }
    ],
    "types": {
      "t_address": {
        "encoding": "inplace",
        "label": "address",
        "numberOfBytes": "20"
      },
      "t_array(t_bytes32)dyn_storage": {
        "base": "t_bytes32",
        "encoding": "dynamic_array",
        "label": "bytes32[]",
        "numberOfBytes": "32"
      },
      "t_array(t_uint256)49_storage": {
        "base": "t_uint256",
        "encoding": "inplace",
        "label": "uint256[49]",
        "numberOfBytes": "1568"
      },
      "t_array(t_uint256)50_storage": {
        "base": "t_uint256",
        "encoding": "inplace",
        "label": "uint256[50]",
        "numberOfBytes": "1600"
      },
      "t_array(t_uint256)dyn_storage": {
        "base": "t_uint256",
        "encoding": "dynamic_array",
        "label": "uint256[]",
        "numberOfBytes": "32"
      },
      "t_bool": {
        "encoding": "inplace",
        "label": "bool",
        "numberOfBytes": "1"
      },
      "t_bytes32": {
        "encoding": "inplace",
        "label": "bytes32",
        "numberOfBytes": "32"
      },
      "t_contract(IERC20)1263": {
        "encoding": "inplace",
        "label": "contract IERC20",
        "numberOfBytes": "20"
      },
      "t_contract(IMarketRegistry)8275": {
        "encoding": "inplace",
        "label": "contract IMarketRegistry",
        "numberOfBytes": "20"
      },
      "t_enum(BidState)6650": {
        "encoding": "inplace",
        "label": "enum TellerV2.BidState",
        "numberOfBytes": "1"
      },
      "t_mapping(t_address,t_array(t_uint256)dyn_storage)": {
        "encoding": "mapping",
        "key": "t_address",
        "label": "mapping(address => uint256[])",
        "numberOfBytes": "32",
        "value": "t_array(t_uint256)dyn_storage"
      },
      "t_mapping(t_address,t_uint256)": {
        "encoding": "mapping",
        "key": "t_address",
        "label": "mapping(address => uint256)",
        "numberOfBytes": "32",
        "value": "t_uint256"
      },
      "t_mapping(t_bytes32,t_uint256)": {
        "encoding": "mapping",
        "key": "t_bytes32",
        "label": "mapping(bytes32 => uint256)",
        "numberOfBytes": "32",
        "value": "t_uint256"
      },
      "t_mapping(t_uint256,t_struct(Bid)6639_storage)": {
        "encoding": "mapping",
        "key": "t_uint256",
        "label": "mapping(uint256 => struct TellerV2.Bid)",
        "numberOfBytes": "32",
        "value": "t_struct(Bid)6639_storage"
      },
      "t_struct(AddressSet)4296_storage": {
        "encoding": "inplace",
        "label": "struct EnumerableSet.AddressSet",
        "members": [
          {
            "astId": 4295,
            "contract": "contracts/TellerV2.sol:TellerV2",
            "label": "_inner",
            "offset": 0,
            "slot": "0",
            "type": "t_struct(Set)3995_storage"
          }
        ],
        "numberOfBytes": "64"
      },
      "t_struct(Bid)6639_storage": {
        "encoding": "inplace",
        "label": "struct TellerV2.Bid",
        "members": [
          {
            "astId": 6621,
            "contract": "contracts/TellerV2.sol:TellerV2",
            "label": "borrower",
            "offset": 0,
            "slot": "0",
            "type": "t_address"
          },
          {
            "astId": 6623,
            "contract": "contracts/TellerV2.sol:TellerV2",
            "label": "receiver",
            "offset": 0,
            "slot": "1",
            "type": "t_address"
          },
          {
            "astId": 6625,
            "contract": "contracts/TellerV2.sol:TellerV2",
            "label": "lender",
            "offset": 0,
            "slot": "2",
            "type": "t_address"
          },
          {
            "astId": 6627,
            "contract": "contracts/TellerV2.sol:TellerV2",
            "label": "marketplaceId",
            "offset": 0,
            "slot": "3",
            "type": "t_uint256"
          },
          {
            "astId": 6629,
            "contract": "contracts/TellerV2.sol:TellerV2",
            "label": "metadataURI",
            "offset": 0,
            "slot": "4",
            "type": "t_bytes32"
          },
          {
            "astId": 6632,
            "contract": "contracts/TellerV2.sol:TellerV2",
            "label": "loanDetails",
            "offset": 0,
            "slot": "5",
            "type": "t_struct(LoanDetails)6619_storage"
          },
          {
            "astId": 6635,
            "contract": "contracts/TellerV2.sol:TellerV2",
            "label": "terms",
            "offset": 0,
            "slot": "10",
            "type": "t_struct(Terms)6644_storage"
          },
          {
            "astId": 6638,
            "contract": "contracts/TellerV2.sol:TellerV2",
            "label": "state",
            "offset": 0,
            "slot": "11",
            "type": "t_enum(BidState)6650"
          }
        ],
        "numberOfBytes": "384"
      },
      "t_struct(LoanDetails)6619_storage": {
        "encoding": "inplace",
        "label": "struct TellerV2.LoanDetails",
        "members": [
          {
            "astId": 6605,
            "contract": "contracts/TellerV2.sol:TellerV2",
            "label": "lendingToken",
            "offset": 0,
            "slot": "0",
            "type": "t_contract(IERC20)1263"
          },
          {
            "astId": 6607,
            "contract": "contracts/TellerV2.sol:TellerV2",
            "label": "principal",
            "offset": 0,
            "slot": "1",
            "type": "t_uint256"
          },
          {
            "astId": 6610,
            "contract": "contracts/TellerV2.sol:TellerV2",
            "label": "totalRepaid",
            "offset": 0,
            "slot": "2",
            "type": "t_struct(Payment)6602_storage"
          },
          {
            "astId": 6612,
            "contract": "contracts/TellerV2.sol:TellerV2",
            "label": "timestamp",
            "offset": 0,
            "slot": "4",
            "type": "t_uint32"
          },
          {
            "astId": 6614,
            "contract": "contracts/TellerV2.sol:TellerV2",
            "label": "acceptedTimestamp",
            "offset": 4,
            "slot": "4",
            "type": "t_uint32"
          },
          {
            "astId": 6616,
            "contract": "contracts/TellerV2.sol:TellerV2",
            "label": "lastRepaidTimestamp",
            "offset": 8,
            "slot": "4",
            "type": "t_uint32"
          },
          {
            "astId": 6618,
            "contract": "contracts/TellerV2.sol:TellerV2",
            "label": "loanDuration",
            "offset": 12,
            "slot": "4",
            "type": "t_uint32"
          }
        ],
        "numberOfBytes": "160"
      },
      "t_struct(Payment)6602_storage": {
        "encoding": "inplace",
        "label": "struct TellerV2.Payment",
        "members": [
          {
            "astId": 6599,
            "contract": "contracts/TellerV2.sol:TellerV2",
            "label": "interest",
            "offset": 0,
            "slot": "0",
            "type": "t_uint256"
          },
          {
            "astId": 6601,
            "contract": "contracts/TellerV2.sol:TellerV2",
            "label": "principal",
            "offset": 0,
            "slot": "1",
            "type": "t_uint256"
          }
        ],
        "numberOfBytes": "64"
      },
      "t_struct(Set)3995_storage": {
        "encoding": "inplace",
        "label": "struct EnumerableSet.Set",
        "members": [
          {
            "astId": 3990,
            "contract": "contracts/TellerV2.sol:TellerV2",
            "label": "_values",
            "offset": 0,
            "slot": "0",
            "type": "t_array(t_bytes32)dyn_storage"
          },
          {
            "astId": 3994,
            "contract": "contracts/TellerV2.sol:TellerV2",
            "label": "_indexes",
            "offset": 0,
            "slot": "1",
            "type": "t_mapping(t_bytes32,t_uint256)"
          }
        ],
        "numberOfBytes": "64"
      },
      "t_struct(Terms)6644_storage": {
        "encoding": "inplace",
        "label": "struct TellerV2.Terms",
        "members": [
          {
            "astId": 6641,
            "contract": "contracts/TellerV2.sol:TellerV2",
            "label": "paymentCycle",
            "offset": 0,
            "slot": "0",
            "type": "t_uint32"
          },
          {
            "astId": 6643,
            "contract": "contracts/TellerV2.sol:TellerV2",
            "label": "APY",
            "offset": 4,
            "slot": "0",
            "type": "t_uint16"
          }
        ],
        "numberOfBytes": "32"
      },
      "t_uint16": {
        "encoding": "inplace",
        "label": "uint16",
        "numberOfBytes": "2"
      },
      "t_uint256": {
        "encoding": "inplace",
        "label": "uint256",
        "numberOfBytes": "32"
      },
      "t_uint32": {
        "encoding": "inplace",
        "label": "uint32",
        "numberOfBytes": "4"
      }
    }
  }
}